:100000000C942A000C9447000C9447000C94470071
:100010000C9447000C9447000C9447000C94470044
:100020000C9447000C9447000C9447000C94470034
:100030000C9447000C9447000C9447000C94470024
:100040000C9447000C9447000C9447000C94470014
:100050000C94470011241FBECFE5D8E0DEBFCDBF12
:1000600010E0A0E6B0E0E0EAF9E002C005900D92F1
:10007000AA3FB107D9F710E0AAEFB0E001C01D9286
:10008000AA3FB107E1F70E9449010C94CE040C94F9
:10009000000080EF84BB8FEF85BB08958FEF85BB99
:1000A000AC9823B32F702F30B9F485E090E0EFEFD8
:1000B00041E050E0682FE5BB75B39A01082E02C0FD
:1000C000220F331F0A94E2F72095272325BB23B381
:1000D0002F702F3039F001C064E083B38F708F3000
:1000E000E1F705C06F5F01968830910519F7683018
:1000F000C9F16530A9F0663018F4643091F505C097
:100100006630C9F0673069F521C02D3069F12E30B5
:1001100019F02B3029F402C081E3089583E3089598
:100120002D3021F12E3019F02B3029F402C084E358
:10013000089586E308952D30D9F02E3019F02B3034
:1001400029F402C087E3089589E308952D3091F0E2
:100150002E3019F02B3029F402C08AE2089583E290
:100160000895089580E0089582E3089585E3089551
:1001700088E3089580E308958BBBC098C19A83EC0F
:1001800099E00197F1F700C00000C19808958FEF42
:100190008ABBB89AB99AC19888E30E94BC008CE0E7
:1001A0000E94BC000895662321F480580E94BC0080
:1001B000089580540E94BC00089581E00E94BC0014
:1001C00008958BBBC09AC19A83EC99E00197F1F72F
:1001D00000C00000C1980895CF93DF93EC0188819F
:1001E000882331F021960E94E10089918823D9F774
:1001F000DF91CF91089590E00E94EC008CE10E9485
:10020000BC008FE996E8A1E081509040A040E1F762
:1002100000C000000895CF92DF92EF92FF920F93FB
:100220001F93CF93DF937C01009751F1C0E0D0E0A2
:100230002AE030E0B9010E94A704CB012196009783
:10024000C9F72097E9F00F2EFAE0CF2EDD24F02D2C
:100250008C2F865F60E00E94D300C701B6010E9428
:10026000A704162F072F805D0E94E10087EA91E620
:100270000197F1F700C00000E12EF02E219741F721
:10028000DF91CF911F910F91FF90EF90DF90CF9072
:100290000895AF92BF92CF92DF92EF92FF920F93A9
:1002A0001F93CF93DF93CDB7DEB7C959D0400FB6B8
:1002B000F894DEBF0FBECDBF0E949D040E94C70010
:1002C0000E94490080E060E00E94D300DE011196A8
:1002D000E0E6F0E081E101900D928150E1F7DE016E
:1002E0005296E1E7F0E082E101900D928150E1F752
:1002F000DE019496E3E8F0E080E101900D928150F8
:10030000E1F7DE01D496E3E9F0E082E101900D929D
:100310008150E1F7DE01AA5BBF4FE5EAF0E084E13E
:1003200001900D928150E1F7DE01A65ABF4FE9EB33
:10033000F0E08DE001900D928150E1F7DE01A959C6
:10034000BF4FE6ECF0E08DE001900D928150E1F7B7
:10035000DE01AC58BF4FE3EDF0E084E101900D9277
:100360008150E1F7DE01A857BF4FE7EEF0E082E1F0
:1003700001900D928150E1F78CA98823B1F010E033
:100380000E94E1001F5F2FE936E841E02150304034
:100390004040E1F700C00000E4E3F0E0EC0FFD1F97
:1003A000E10FF11D8081882359F780E061E00E9410
:1003B000D30027968FAD27978823B1F010E00E94D5
:1003C000E1001F5F8FE996E8A1E081509040A040D6
:1003D000E1F700C00000E6E4F0E0EC0FFD1FE10FE4
:1003E000F11D8081882359F7AA2400E0FF24DD2431
:1003F00010E0EE240BC0EE246894E2F807C0EE246F
:100400006894E2F803C0EE246894E2F80E944E007B
:10041000B82E9AE2B91609F056C02FE936E841E045
:10042000215030404040E1F700C000000E94DD0054
:10043000CC2480E060E00E94D300E1E0F0E0EC0F2B
:10044000FD1FE10FF11D80818823A9F00E94E100CA
:100450001F5F8FE996E8A1E081509040A040E1F74E
:1004600000C00000E1E0F0E0EC0FFD1FE10FF11D26
:100470008081882359F78C2D61E00E94D3000E946F
:100480004E00E82E8823B9F08AE20E94E100AFE432
:10049000B3EC1197F1F700C000008E2D90E00E94A0
:1004A000A2042FE936E841E0215030404040E1F716
:1004B00000C00000C39432E03C1508F0BACFEE242F
:1004C0006894E1F804C042E0E41609F0FAC08FE352
:1004D00092E4AFE081509040A040E1F700C00000FE
:1004E0008FEF90E00E94A2042FE73AE146E021500E
:1004F00030404040E1F700C00000813009F0A0C06A
:100500008FE39DE0A3E081509040A040E1F700C060
:1005100000000E94DD00E2E1F0E0EC0FFD1FE00FC3
:10052000F11D80818823A9F00E94E1000F5F2FE96F
:1005300036E841E0215030404040E1F700C0000083
:10054000E2E1F0E0EC0FFD1FE00FF11D8081882358
:1005500059F78FE79AE1A6E081509040A040E1F77B
:1005600000C0000081E061E00E94D300EAE5F0E015
:10057000EC0FFD1FEF0DF11D80818823A9F00E9473
:10058000E100F3942FE936E841E02150304040404B
:10059000E1F700C00000EAE5F0E0EC0FFD1FEF0D11
:1005A000F11D8081882359F70E94790482E390E04D
:1005B0000E9485048FE79DE8ABE581509040A04004
:1005C000E1F700C0000013BE0E947F0482E390E0C8
:1005D0000E9491042FE332E44FE02150304040402C
:1005E000E1F700C0000081E061E00E94D300E7E68F
:1005F000F0E0EC0FFD1FED0DF11D80818823A9F0C7
:100600000E94E100D3948FE996E8A1E081509040E8
:10061000A040E1F700C00000E7E6F0E0EC0FFD1FAE
:10062000ED0DF11D8081882359F72FEB36EC4DE25B
:10063000215030404040E1F700C0000015BC41C0EF
:100640008FE39DE0A3E081509040A040E1F700C01F
:1006500000000E94DD008CA18823B1F010E00E9410
:10066000E1001F5F2FE33DE043E021503040404078
:10067000E1F700C00000E4E2F0E0EC0FFD1FE10F45
:10068000F11D8081882359F78FE794E8AEE181500E
:100690009040A040E1F700C0000080E090E0C75625
:1006A000DF4F0FB6F894DEBF0FBECDBFDF91CF9105
:1006B0001F910F91FF90EF90DF90CF90BF90AF9080
:1006C000089593E2B91609F052C02FE936E841E0E7
:1006D000215030404040E1F700C000000E94DD00A2
:1006E000CC2480E060E00E94D300E1E0F0E0EC0F79
:1006F000FD1FE10FF11D80818823A9F00E94E10018
:100700001F5F8FE996E8A1E081509040A040E1F79B
:1007100000C00000E1E0F0E0EC0FFD1FE10FF11D73
:100720008081882359F78C2D61E00E94D3000E94BC
:100730004E00E82E8823B9F08AE20E94E100AFE47F
:10074000B3EC1197F1F700C000008E2D90E00E94ED
:10075000A2042FE936E841E0215030404040E1F763
:1007600000C00000C39432E03C1528F0BACF44E04A
:10077000E41609F04BCE8FE392E4AFE08150904055
:10078000A040E1F700C000008FEF90E00E94A204BB
:100790002FE73AE146E0215030404040E1F700C009
:1007A0000000813009F027CE8FE39DE0A3E0815067
:1007B0009040A040E1F700C000000E94DD00E4E7A7
:1007C000F0E0EC0FFD1FE00FF11D80818823A9F000
:1007D0000E94E1000F5F2FE936E841E021503040F0
:1007E0004040E1F700C00000E4E7F0E0EC0FFD1F3F
:1007F000E00FF11D8081882359F78FE79AE1A6E089
:1008000081509040A040E1F700C0000081E061E02D
:100810000E94D30081E690E00E94A204CC240E94B2
:100820004E00E82E8C2D61E00E94D300EE20B9F33B
:100830008AE20E94E100AFE4B3EC1197F1F700C047
:1008400000008E2D90E00E94A2042FE936E841E0DE
:10085000215030404040E1F700C00000C39432E036
:100860003C15E8F68FE392E4AFE081509040A04061
:10087000E1F700C000008FEF90E00E94A2042FE794
:100880003AE146E0215030404040E1F700C000002E
:10089000833009F0B4CD8FE39DE0A3E08150904018
:1008A000A040E1F700C000000E94DD00E8E8F0E0B1
:1008B000EC0FFD1FEA0DF11D8081882309F4A3CD03
:1008C0000E94E100A3942FE936E841E02150304036
:1008D0004040E1F700C00000E8E8F0E0EC0FFD1F49
:1008E000EA0DF11D8081882359F7EE246894E2F81F
:1008F0008DCDBB9A8F9A979884E683BF08958F9A7F
:100900008B9A939886E685BD0895282F30E0922F24
:100910008827821B930B64E670E00E94A7046CBFDB
:100920000895282F30E0922F8827821B930B64E6CE
:1009300070E00E94A70463BD089580EA87BB81E54B
:100940008DB908958FB9779BFECF8FB1089597FB2E
:10095000092E07260AD077FD04D00CD006D000203F
:100960001AF4709561957F4F0895F6F790958195EB
:100970009F4F0895AA1BBB1B51E107C0AA1FBB1FB5
:10098000A617B70710F0A61BB70B881F991F5A951B
:10099000A9F780959095BC01CD010895F894FFCFFB
:1009A00020456E7465722050617373776F72643A7C
:1009B0000020436F72726563742050617373776FA8
:1009C0007264002057726F6E672050617373776F87
:1009D0007264002A2D2D3E4F70656E20546865208C
:1009E000446F6F7200232D2D3E4368616E67652052
:1009F00050617373776F726400446F6F72204F5051
:100A0000656E696E6700446F6F7220436C6F736927
:100A10006E670020456E746572204E6577205061C8
:100A20007373776F7264002050617373776F7264B1
:0A0A3000204368616E6765640000F2
:00000001FF
